:100000000C94BD010C94F5010C94F5010C94F501D0
:100010000C94F5010C94F5010C94F5010C94F50188
:100020000C94F5010C94F5010C9474180C94301890
:100030000C9471190C94F5010C94F5010C94F501D4
:100040000C94F5010C94F5010C94F5010C94F50158
:100050000C94F5010C944D190C94F5010C94F501D8
:100060000C94F5010C94F5010C94F5010C94F50138
:100070000C94F5010C94F5010C94F5010C94F50128
:100080000C94F5010C94F5010C94F5010C94F50118
:100090000C94F5010C94F5010C94F5010C94F50108
:1000A0000C94F5010C94F5010C94F501050109027D
:1000B000A10185020901A1000509190129081500FE
:1000C0002501950875018102050109300931158165
:1000D000257F95027508810609381581257F9501D0
:1000E00075088106050C0A38021581257F95017572
:1000F000088106C0C005010980A101850319012AF4
:10010000B700150126B700950175108100C0050CD8
:100110000901A101850419012AA002150126A002E6
:10012000950175108100C005010906A1018506052C
:100130000719E029E71500250195087501810205D9
:1001400007190029EF1500250195F07501810205B9
:10015000081901290595057501910295017503910D
:1001600001C00660FF0961A1010962150026FF00B8
:100170009520750881020963150026FF00952075FA
:10018000089102C005010906A101050719E029E748
:1001900015002501950875018102950175088101F9
:1001A0000507190029FF150026FF0095067508812F
:1001B000000508190129059505750191029501753C
:1001C000039101C0000000000000000000000000DA
:1001D000000000000000000000000000000000001F
:1001E00000000000000000007E0F00D4FFFFFFC7EA
:1001F0000000007800000000000000002A2B28000A
:1002000000000000000000000000000000000029C5
:10021000000000002C1E3420212224342627252E05
:10022000362D3738271E1F2021222324252633333D
:10023000362E37381F0405060708090A0B0C0D0E69
:100240000F101112131415161718191A1B1C1D2F35
:100250003130232D350405060708090A0B0C0D0E55
:100260000F101112131415161718191A1B1C1D2F15
:100270003130354C3700360028000000E0002C00FB
:10028000000000000000000000000100010001006B
:10029000010000000100010000000000000000005B
:1002A0000000010001000100010000000100010048
:1002B000000000000000000000000100010001003B
:1002C000010000000100010000000000000000002B
:1002D00000000100A900AA000100010001000100C6
:1002E0000100010009025B00030100A0FA090400FB
:1002F0000001030101000921110100012240000752
:10030000058103080001090401000203000000093F
:1003100021110100012222000705820320000107AC
:100320000503032000010904020001030000000985
:10033000211101000122B6000705840320000112EB
:100340000100020000000800DA05051001010200AA
:1003500001120342006F006300630068006900300F
:1003600000350000000E034400610072006B007451
:100370000074000000040309040011241FBECFEF25
:10038000DAE0DEBFCDBF04B603FE18C08091520292
:1003900090915302A0915402B09155028730904B36
:1003A000A740B04B59F4109252021092530210928F
:1003B000540210925502E0E0F8E3099511E0A0E044
:1003C000B1E0E0E0FFE302C005900D92A836B1076E
:1003D000D9F722E0A8E6B1E001C01D92A235B2072C
:1003E000E1F70E9498190C942A1F0C940000E8ED84
:1003F000F0E080818E7F80831092E2001092DA001C
:100400001092E100A0EEB0E08C9181608C9380812D
:100410008F77808319BCA7EDB0E08C918E7F8C9391
:1004200080818F7E80831092200208952091E400C5
:100430003091E50095E6A9012091EC00822F8170B2
:1004400020FF06C08091E80080FF06C080E008958C
:100450002091E80022FD1AC080914502882389F08E
:10046000853089F08091EB0085FD0FC02091E4007C
:100470003091E50042175307F9F29150E1F684E01C
:10048000089582E0089583E0089581E008958091C1
:10049000470287FF13C08091E80082FF06C0809169
:1004A000E8008B778093E80004C0809145028111B9
:1004B000F2CF0895809145028823D9F38091E80016
:1004C00080FFF8CF8091E8008E77ECCF982F909343
:1004D000E900242F762F50E0891731F07091EC005D
:1004E0002091ED005091F00021FD07C09F5F9730F3
:1004F00071F78093E90081E008953091EB003E7F31
:100500003093EB003091ED003D7F3093ED00309162
:10051000EB0031603093EB007093EC002093ED0022
:100520005093F0002091EE0027FDE0CF80E0089589
:10053000B0E0A0E0EEE9F2E00C949A1EC8EDD0E045
:1005400088818F7E8883E7EDF0E080818160808301
:1005500084E082BF81E08093200288818E7F88833F
:1005600002EE10E0F80110821092DA0081EEC82E3F
:10057000D12CF601108288818F77888388818068EA
:10058000888388818F7D888319BC109245021092E0
:100590004602109244021092430290EEE92EF12C92
:1005A000F70180818B7F808388818160888342E02E
:1005B00060E080E00E946602F60180818E7F808389
:1005C000F801808181608083808188608083F70169
:1005D00080818E7F8083888180618883CDB7DEB7FC
:1005E000E8E00C94B61EFC0180914D0290914E0201
:1005F00086179707A0F06115710529F49091E8001E
:100600009E779093E80090E06115710551F4911187
:1006100008C08091E80082FF34C080E00895BC01EA
:10062000F2CF809145028823C1F18530C1F18091DC
:10063000E80083FD30C08091E80082FDEACF809120
:10064000E80080FFE1CF8091F3002091F200382F85
:100650006115710519F02830310558F091E0283006
:10066000310509F090E02091E8002E772093E80012
:10067000CBCF81918093F100615071092F5F3F4F83
:10068000E7CF80914502882341F0853041F0809189
:10069000E80083FFBECF81E0089582E0089583E003
:1006A00008958091220208959C014FB7F89480919B
:1006B0001A0290911B02A0911C02B0911D024FBF23
:1006C000821B930B08952FB7F89460911A027091D2
:1006D0001B0280911C0290911D022FBF08952FB71D
:1006E000F89480911A0290911B02A0911C02B09183
:1006F0001D022FBF0895209108012223C9F02091E7
:100700001E0227FF15C0E62FE695E695E695EE3129
:10071000D8F4E80FF92FF11D677021E030E001C037
:10072000220F6A95EAF72095828128232283089573
:10073000FC01329608962191621303C0DF011197E4
:100740001C92E817F907B9F70895209108012223B0
:10075000C1F020911E0227FF14C0E62FE695E69512
:10076000E695EE31F8F4E80FF92FF11D677021E0FE
:1007700030E001C0220F6A95EAF78281822B8283E2
:100780000895FC0132962FEF30E04191641751F04B
:100790002F3F19F4411101C0232F3F5F3630A9F7D5
:1007A0002F3F09F40895820F911D27FD9A95FC01B2
:1007B00062830895A3E0B0E0E0EEF3E00C94A01EA5
:1007C000209117023091180228173907A1F0909351
:1007D000180280931702E0911502F09116023097EB
:1007E00051F024E029839B838A830680F781E02DE2
:1007F000CE01019609952396E2E00C94BC1EA3E07D
:10080000B0E0E5E0F4E00C94A01E209113023091DA
:10081000140228173907A1F0909314028093130251
:10082000E0911502F0911602309751F023E02983F0
:100830009B838A830680F781E02DCE01019609957E
:100840002396E2E00C94BC1EE0911502F091160292
:10085000309729F00190F081E02D0995089580E00E
:1008600008950E946F039C0190910F0280911002E5
:10087000982B21F030930C0220930B0290911102DF
:1008800080911202982B21F030930A0220930902E2
:10089000E0911502F0911602309749F082E08093C2
:1008A0000D020480F581E02D8DE092E00995089518
:1008B0008091080280FD16C081FD16C082FD16C021
:1008C000809107028823A1F0883280F428E0829F7B
:1008D000C001112468E270E00E946F1E862F672B12
:1008E00039F0089582E0089584E0089588E008953D
:1008F00081E008958091080280FD14C081FD14C03C
:1009000082FD16C080910602882381F08E3180F42A
:1009100020E5829FC00111246EE170E00E946F1EED
:10092000862F089584E1089588E2089588E0089567
:1009300080E5089580E00895F894E82FE295EF703F
:10094000F0E031A1282F2F7081E090E001C0880FE6
:100950002A95EAF7982F9095932391A392A1892B3A
:1009600082A37894089590911E0292FF06C0282FCA
:1009700028712830F9F4877F846093FF06C0282F00
:1009800028712831F1F4877E846120911F0220FFB5
:1009900006C0382F38713830D9F4877F816021FF45
:1009A00006C0282F28712831D1F4877E816194FDFB
:1009B000877E0895282F24712430F9F68B7F886074
:1009C000DCCF282F2471243101F78B7E8861DDCFA5
:1009D000382F3171313019F78E7F8860E0CF282FA2
:1009E0002171213121F78E7E8861E1CF8238910516
:1009F000B9F1B0F48133910509F47DC048F489322E
:100A0000910509F46DC08A32910509F47BC00895FF
:100A10008533910509F45FC08933910509F1089583
:100A2000833E9105D9F138F4803E910529F1823E4B
:100A3000910579F10895863E9105D9F1873E91059A
:100A400009F43EC0843E910541F520911F0221FF2B
:100A500024C080911E0284FD19C087EE90E00895A5
:100A600020911E02237009F05AC020911F0223FF1B
:100A700014C089E290E0089520911E0220FD38C044
:100A800030911F0230FF09C024FF43C090E080E096
:100A9000089520911E0222FDF7CF089520911E0295
:100AA00022FD3AC030911F0230FD39C024FFF5CF3E
:100AB000EDCF20911E0223FFF0CF24FDE7CFCDCF55
:100AC00020911E0223FD2EC030911F0231FFEECF78
:100AD00084EE90E0089520911E0225FFDECFC9CF5D
:100AE00020911E0225FD21C020911F0223FFD5CF9A
:100AF00089E390E0D2CF20911E0226FFCECF8AE27A
:100B000090E0089520911E0226FFC7CF81E390E078
:100B1000089583EE90E0089582EE90E0089580EECF
:100B200090E0089586EE90E0089585E390E00895C2
:100B30001F93CF93DF930E94F604EC01C11580E56B
:100B4000D807F0F5C11580E4D80708F09CC0C03E76
:100B5000D10520F5CD3CD10508F082C0C83AD105B9
:100B600078F4C53AD10508F073C0C130D10519F148
:100B7000209709F1C430D105F0F4D0E0C0E01BC0EB
:100B8000C33CD105D0F7C85AD0E0CC0FDD1FC45FFD
:100B9000DE4F0990D881C02DD4640DC0C11580E20C
:100BA000D80708F0D1C0C11581E0D80708F05AC0B5
:100BB000C83ED10510F7CE01DF91CF911F91089566
:100BC000C03682E5D80718F5C03482E5D80708F0AA
:100BD0006BC0C03282E5D80708F05FC0C11582E55E
:100BE000D80708F497C02C2F2695269580E2289FD9
:100BF000900111248C2F8370C1E0D0E002C0CC0F93
:100C0000DD1F8A95E2F7C22BD32BDD68D4CFC03A23
:100C100082E5D80760F4C03882E5D80708F459C0E7
:100C2000CF71D0E0DC2FCC27C46FD06AC4CFC03CDA
:100C300082E5D80708F462C0C03E82E5D80708F014
:100C40009CCFDC2FCC27CC27DF71C06FD06AB3CF0D
:100C5000C55AD0E0C75FDE4FC881D0E0D064ABCFCB
:100C6000D065A9CF8D2F0E94B304182FCE019927EC
:100C70000E94F604C12FD0E0DC2FCC27CC27DF71F7
:100C8000C82BD92B98CFCE0199270E94F604CC27E8
:100C9000DF70C82BD92BD06A8ECFCF71D0E0DC2F7C
:100CA000CC27C16FD06A87CF2C2F26952695277029
:100CB00080E2289F900111248C2F8370C1E0D0E046
:100CC00002C0CC0FDD1F8A95E2F7C22BD32BDC6864
:100CD00072CF2C2F26952695277080E2289F9001B1
:100CE00011248C2F8370C1E0D0E002C0CC0FDD1F37
:100CF0008A95E2F7C22BD32BDA685DCF8C2F8F71E8
:100D00000E94B304C82FD0E0DC2FCC27CC27DF71A2
:100D1000D06251CF8C2F8F710E94B30455E0D695CD
:100D2000C7955A95E1F7CF70D0E0DC2FCC27282F5C
:100D300030E084FF05C044E0220F331F4A95E1F7FD
:100D4000C22BD32BD06937CF8D2F8F710E94B30464
:100D5000182FCE0199270E94F604C12FD0E0DC2F76
:100D6000CC27CC27DF71C82BD92BD2CF8091EF01B4
:100D700081111092EF01089580959091EE019823D2
:100D80009093EE0108952091CB0190919A0156E045
:100D9000291302C080E0089530E0529FF001539F74
:100DA000F00D1124E556FE4F7181761306C0708157
:100DB000781303C07281741304C02F5F3F4F2770F4
:100DC000E7CF81E008958091CB0190919A0198132B
:100DD00001C008958F5F8770FACFA82FA77023E016
:100DE000969587952A95E1F7FC01EE0FFF1FE80F16
:100DF000F91FE60FF71F50E040E080E0219130E05E
:100E00000A2E02C0369527950A94E2F721703327FF
:100E1000042E01C0220F0A94EAF7822B4F5F5F4F26
:100E20004330510559F70895933070F4843098F4A5
:100E300044E0949F900111246EE871E0820F932F9B
:100E4000911D0E94ED0608959C5F923020F46BE89E
:100E500071E090E0F6CF80E00895262F277091E0B2
:100E600001C0990F2A95EAF723E0769567952A95B0
:100E7000E1F7FB01EE0FFF1FE60FF71FE40FF51F71
:100E800050E040E0682F70E08191DF0111979B01F5
:100E9000042E02C0369527950A94E2F72170219519
:100EA0002827292328272C934F5F5F4F4330510574
:100EB00059F70895282F862F933068F4243050F482
:100EC00034E0939FB0011124620F711D4EE851E090
:100ED0000E942D0708959C5F9230E0F7622F70E02A
:100EE0004BE851E0F5CF8093F90108959091F90115
:100EF00021E030E0F90101C0EE0F8A95EAF7D9014F
:100F000002C0AA0FBB1F6A95E2F7EA2B01C0220FAD
:100F10004A95EAF7892F8E23E81305C0292B822FE3
:100F20000E947307089520952923F9CF21E030E02E
:100F300001C0220F8A95EAF720958091F90182235A
:100F40000E94730708959091CC0180958923809326
:100F5000CC01282F277091F4282F082E000C330B7A
:100F60009217130659F090911F0292FF07C08595C2
:100F7000859585950E9496071092CC01089521E0F1
:100F800030E001C0220F8A95EAF78091F901822BA7
:100F90000E94730708958093F8010895662309F469
:100FA0005DC08D3C41F40E947A04819580931002CB
:100FB0000E94310408958E3C19F40E947A04F6CF01
:100FC0008F3C31F40E947A04819580930F02F0CF18
:100FD000803D19F40E947A04F8CF893D29F40E94DB
:100FE000580480931102E4CF8A3D21F40E945804F2
:100FF0008195F7CF8B3D31F40E9458048195809301
:101000001202D6CF8C3D19F40E945804F8CF9FE20B
:10101000980F983070F4815D990B21E030E001C0A9
:10102000220F8A95EAF780910E02822B80930E029E
:10103000BFCF8D3D31F4809108028160809308021A
:10104000B7CF8E3D21F4809108028260F7CF8F3DAB
:1010500009F0AECF809108028460F0CF40910F027A
:101060008D3C59F48091100287FF0DC01092100240
:1010700041110BC01092060208C08E3C81F4809191
:10108000100218169CF3442381F080911102909174
:101090001202892B09F08CCF1092070289CF8F3C66
:1010A00049F447FFF0CF10920F0280911002811196
:1010B000ECCFE0CF803D19F41416ACF3E4CF90915F
:1010C0001102893D29F41916F4F610921102DBCFB2
:1010D0008A3D19F497FFD7CFF8CF909112028B3D3C
:1010E00029F497FFD0CF10921202CDCF8C3D19F486
:1010F0001916CCF3C8CF9FE2980F983090F4815D19
:10110000990B21E030E0B90102C0660F771F8A9584
:10111000E2F7CB01809590910E02892380930E0215
:10112000B2CF8D3D31F4809108028E7F809308020A
:10113000AACF8E3D21F4809108028D7FF7CF8F3D9D
:1011400009F0A1CF809108028B7FF0CF0F931F93FE
:10115000CF93DF938B01EA0190914502943061F5C2
:101160008093E9008FEF9091E800815095FD06C0D3
:1011700095ED9A95F1F700008111F5CF8091E80087
:1011800085FF1AC00E941602811111C08091E800EB
:1011900085FD06C08091E8008E778093E800F2CF4D
:1011A000F80181918F018093F100219779F7809167
:1011B000E8008E778093E800DF91CF911F910F9127
:1011C000089543E050E0BC0184E00E94A608089521
:1011D00046E050E0BC0184E00E94A6080895CF9349
:1011E000DF93EC0180910801811111C048E050E0CB
:1011F000BE0181E00E94A60880E2FE01A3E2B2E007
:1012000001900D928A95E1F7DF91CF910895809139
:101210001E0287FF05C040E284E050E0BE01EACF35
:1012200048E081E0FACF81E08093E00080E28093A3
:10123000D8001092C9008FE19EE40197F1F700C039
:10124000000087E090EBDC01809352029093530200
:10125000A0935402B093550288E19CE00FB6F89435
:10126000A895809360000FBE90936000FFCFCF934E
:10127000DF93C6E9D0E060E0CE010E94E91E21962E
:10128000C11584E0D807B9F7DF91CF9108950F9386
:101290001F93CF93DF93142F022F8430F0F461114A
:1012A0001CC094E0899FE0011124CA57DF4F82E0FF
:1012B00090E0442311F090E080E0632F8C0F9D1F9D
:1012C0000E94E91E83E090E0112311F081E090E09C
:1012D000602F8C0F9D1F0E94E91EDF91CF911F91FF
:1012E0000F9108951F93CF93DF93122F8430E0F472
:1012F0006330D0F44430C0F498E0699FE0011124D9
:1013000050E0440F551FC40FD51F98E1899FC00DB1
:10131000D11D1124632FCE0186960E94E91E612FF4
:10132000CE0187960E94E91EDF91CF911F9108950B
:10133000B0E0A0E0EEE9F9E00C94951E84EDC82E33
:1013400082E0D82E96EDA92E92E0B92E24E7E22E67
:1013500022E0F22EC0E08701D0E014C0F401259114
:101360003491472D6D2F8C2F0E94720982E0880ED8
:10137000911C739484E07812F1CF085F1F4FDF5FF8
:10138000D33019F04801712CE9CFF6012591349141
:1013900041E060E08C2F0E944709F50125913491CE
:1013A00040E060E08C2F0E94470984E0C80ED11C09
:1013B000CF5F84E0A80EB11C88E1E80EF11CC430B8
:1013C00009F0C9CFCDB7DEB7EDE00C94B11ECF93D5
:1013D000C82F6FEF811163E282E290E00E94E91E64
:1013E0006FEFC11163E083E290E00E94E91E6FEFAE
:1013F000C11161E184E290E00E94E91ECF9108955D
:1014000080E00E94E70960E085E290E00E94E91E2A
:101410000E9498090E94370981E00E94E709089517
:10142000FF920F931F93CF93DF93F42E843040F5F8
:10143000611126C024E0829F800111240A571F4FAA
:1014400082E090E0442311F090E080E0800F911F53
:101450000E94DB1EC82FD0E0DC2FCC2783E090E079
:10146000FF2011F081E090E0800F911F0E94DB1EB1
:101470009E01282BC901CDB7DEB7E5E00C94B91E5B
:1014800090E080E0F8CF0F931F93CF93DF938430E9
:1014900030F5633020F5443010F528E0629F80017C
:1014A000112450E0440F551F040F151F38E1839F8E
:1014B000000D111D1124C80186960E94DB1EC82F45
:1014C000D0E0DC2FCC27C80187960E94DB1E9E014E
:1014D000282BC901DF91CF911F910F91089590E0C2
:1014E00080E0F8CF462F672F733038F4443060F433
:1014F000843050F40E94430A08957D3F41F4411125
:1015000003C041E0843048F090E080E008957C3FE3
:10151000D9F74111F9CF8430B8F760E00E94100A82
:101520000895CF92DF92FF920F931F93CF93DF9393
:101530006C010091F9018091F801082BC3E0D0E023
:1015400010E0FC2EC8010C2E02C0959587950A94D8
:10155000E2F780FD0CC02197A0F7F12C8F2DDF91D1
:10156000CF911F910F91FF90DF90CF900895B6011A
:101570008C2F0E94720A0E949805019761F3EECFAA
:10158000CF93DF93EC010E94910ABE010E94720A80
:101590000E949805DF91CF910895FC018381948189
:1015A000892B29F08081918189238F3F51F480E03C
:1015B0000895843FE1F717C0883EA8F0813FB9F74E
:1015C00012C0808191810E94C00A92959F709630CE
:1015D00099F358F4925F9F70923048F7803F19F06A
:1015E00040F7883E20F781E008959A5FF4CF82E2C9
:1015F00090E00E94DB1E833289F483E290E00E9437
:10160000DB1E833059F484E290E00E94DB1E91E0FF
:10161000813109F090E0892F8170089580E0FCCF3E
:101620008091EE019091ED01892B80936A01909158
:10163000EF019923A1F0892B80936A018091080121
:101640008823E1F180911E0287FF38C08EE1ECE62D
:10165000F1E090E08150A0F591110E94B60640E2C1
:1016600050E06DEC71E08AE691E00E941D1F892B2D
:1016700021F180E2EAE6F1E0ADECB1E001900D92FB
:101680008A95E1F7E0911502F09116023097A9F0E2
:1016900080910801882359F080911E0287FF07C0BE
:1016A00080916A0180936B0186E080936A010280D9
:1016B000F381E02D8AE691E00995089586E0C7CF91
:1016C0002191222339F29F5FC5CF882321F00E9408
:1016D000BC060E94100B0895882339F09091EE010A
:1016E000982B9093EE010E94100B0895882399F196
:1016F0009CEF980F913A40F4682F8AE691E00E949F
:101700007B030E94100B089590E2980F983050F4DC
:10171000877091E001C0990F8A95EAF7892F0E949E
:10172000BC06EFCF9BE5980F933028F490E080E063
:101730000E94FF03089598E5980F9B3128F490E0EC
:1017400080E00E94DA03089593E3980F933118F430
:1017500060E00E94CE070895CF93C82F8823D9F167
:101760008CEF8C0F813AC8F580910801882311F124
:1017700080911E0287FF1EC0EC2FE695E695E69548
:10178000F0E0E659FE4F828190E04C2F477021E057
:1017900030E002C0220F331F4A95E2F782239323E1
:1017A000892B91F06C2F8AE691E00E947B030E94C6
:1017B000100B0AC0ECE6F1E082E791E02191C2173C
:1017C00089F38E179F07D1F76C2F8AE691E00E946C
:1017D000A5030E94100BCF91089580E28C0F8830F2
:1017E00068F4C77021E030E001C0220FCA95EAF723
:1017F0008091EE01822B8093EE01EBCFEBE5EC0FB5
:10180000E33040F4F0E0E75FFE4F808190E00E941B
:10181000FF03E1CFE8E5EC0FEB3150F4F0E0EE0F21
:10182000FF1FE45FFE4F808191810E94DA03D3CFD6
:1018300083E38C0F833178F661E08C2F0E94CE0712
:10184000CACF1F93CF93DF93182FD0E0C0E0893326
:1018500011F4C0E5D0E0812F0E94AC0B209739F441
:10186000812F0E94760BDF91CF911F9108958FE910
:101870009FE00197F1F700C000002197EFCF0F9391
:101880001F93CF93DF93C62FD42F022FFC018281A9
:101890008823A9F0609351020E946F039093500235
:1018A00080934F02C77081E001C0880FCA95EAF7A4
:1018B0000E946C0BDF91CF911F910F910895809141
:1018C0005102681332C080914F02909150020E94E1
:1018D0005403883C910548F510E21D0FCD17B9F06F
:1018E00080E28C0F883040F4C77081E001C0880F1F
:1018F000CA95EAF70E94650B183048F481E09D2FE5
:10190000977001C0880F9A95EAF70E946C0B802FA0
:101910000E94210C183070F6D77081E001C0880F4A
:10192000DA95EAF70E94650BC5CFC77081E001C068
:10193000880FCA95EAF7F6CF90911F0292FB2227F3
:1019400020F9281779F080FB92F990931F0260919B
:101950001E0270911F0284E090E00E94071F82E047
:101960000E94A30708951092EE0180910801ECE611
:10197000F1E0882329F180911E0287FF21C08EE1CA
:10198000DF011D928A95E9F790E080E00E94FF0355
:1019900090E080E00E94DA031092ED010E94100BAB
:1019A00086E0EDE0F2E0DF011D928A95E9F7109202
:1019B000060210920702109208020E943104089554
:1019C00086E0DECFAAE2B0E0E8EEFCE00C949F1ED9
:1019D00087E492E02091F100DC012D93CD01B2E08B
:1019E0008F349B07B9F780914802833009F472C0A5
:1019F000B8F4813009F449C0823009F4B3C0809151
:101A0000E80083FF8BC280914702909148029A3090
:101A100008F084C2E92FF0E0E45DF04E0C94831EE0
:101A20008A3009F48EC08B3009F471C0893039F7DF
:101A300080914702813219F780914B0290914C02BC
:101A4000009711F00297D9F68091E800877F809384
:101A5000E8008091E80082FF38C09091F300809107
:101A6000F200029731F48091F100813011F086305C
:101A700021F48091F100809322028091E8008B771D
:101A80008093E8000E944702BACF80914702813AD2
:101A900009F0B5CF8091E800877F8093E8008091BE
:101AA0004B0290914C02892B61F460E283E292E058
:101AB00070E00E94F3028091E8008B778093E80049
:101AC0009ECF60E090E080E0F3CF809145028111ED
:101AD000C0CF95CF80914702813A09F090CF809195
:101AE0004B0290914C02892B09F089CF8091E8003C
:101AF000877F8093E8008091E80080FFFCCF809191
:101B000008018093F1008091E8008E77B9CF809131
:101B10004702813209F073CF80914B0290914C02C1
:101B2000892B09F06CCF8091E800877F8093E800D3
:101B30000E94470280914902809308010E94B30CE1
:101B40005ECF80914702813209F059CF8091E80041
:101B5000877F8093E8000E94470280914A02809329
:101B600021024DCF80914702813A09F048CF809100
:101B7000E800877F8093E8008091E80080FFFCCF39
:101B800080912102BECF803899F0823809F0C6C119
:101B900080914B028F70873008F0C0C18093E900BC
:101BA0008091EB0085FB882780F91092E90006C040
:101BB0008091430290914402911182609091E800DB
:101BC000977F9093E8008093F1001092F10080914C
:101BD000E8008E779FC1882309F48DC1823009F017
:101BE0009DC180914902811190C180914B028F70FB
:101BF0002FEF280F263008F091C18093E900209143
:101C0000EB0020FF82C1933031F48091EB008062C1
:101C10008093EB007AC19091EB0090619093EB0080
:101C200021E030E001C0220F8A95EAF72093EA0014
:101C30001092EA008091EB008860EACF81116EC1BA
:101C4000109149021F778091E3008078812B809367
:101C5000E3008091E800877F8093E8000E944702BC
:101C60008091E80080FFFCCF8091E3008068809342
:101C7000E30082E0111183E0809345024FC1805858
:101C8000823008F04BC12091490230914A022C3D2C
:101C9000E3E03E07A1F583E08A838AE289834FB7B8
:101CA000F894DE01139620E03EE051E2E32FF0E0ED
:101CB00050935700E49120FF03C0E295EF703F5F1F
:101CC000EF708E2F90E0EA30C0F0C7968D939D9311
:101CD0002F5F243159F74FBF8091E800877F8093B1
:101CE000E8006AE270E0CE0101960E94F302809162
:101CF000E8008B778093E80011C1C096E7CF809110
:101D00004B0290914C02432F55274330510509F463
:101D10004AC078F54130510509F47AC08BE590E06E
:101D2000E4EEF2E04230510509F0F8C02091E800FD
:101D3000277F2093E80020914D0230914E028217B8
:101D4000930708F49C0140E02115310509F065C0B6
:101D5000411163C08091E80082FDC9CF80914502A6
:101D6000882329F2853019F28091E80083FFF2CFB1
:101D7000BECF4132510509F43CC04232510509F051
:101D8000CDC08330910508F0C9C0FC01EE0FFF1FE4
:101D9000E45AFE4F0190F081E02D875A9E4FDC01FE
:101DA0008C9190E01AC0332721303105D1F02115F4
:101DB000310561F02230310509F0B0C0E1E5F3E012
:101DC000E4918E2F90E0E1E5F3E007C0E5E7F3E072
:101DD000E4918E2F90E0E5E7F3E0009709F49EC0D0
:101DE000A5CFE5E6F3E0E4918E2F90E0E5E6F3E0A1
:101DF000F4CF8330910508F091C0880F991FFC0142
:101E0000EE59FE4F0190F081E02D89E090E08ECFF9
:101E100082E190E0EFE3F3E089CF809145028823EF
:101E200009F465CF853009F462CF8091E80083FD25
:101E30005ECF8091E80082FD8DCF8091E80080FF29
:101E400083CF9091F3008091F2002115310519F0B4
:101E50008830910550F041E0089709F040E080910A
:101E6000E8008E778093E8006FCF44914093F100B3
:101E70003196215031090196E8CF803809F04EC0E3
:101E80008091E800877F8093E800809146028093EC
:101E9000F1009DCE811142C0109149021230F0F53F
:101EA0008091E800877F8093E800109346020E94AB
:101EB0004702112311F084E005C08091E30087FD03
:101EC000FACF81E08093450242E061EC81E00E941C
:101ED000660242E261EC84E00E94660242E261EC4A
:101EE00082E00E94660242E260EC83E00E946602A9
:101EF0008091450213C080914902813079F481E0DC
:101F0000933009F080E0809344021092E9008091C0
:101F1000E800877F8093E8000E9447028091E800F4
:101F200083FF0AC08091E800877F8093E80080915A
:101F3000EB0080628093EB00AA96E3E00C94BB1E5A
:101F40000E94B30C2FEF84E39CE02150804090402E
:101F5000E1F700C0000088E19CE00FB6F894A89576
:101F6000809360000FBE90936000FFCFA8E0B0E0C8
:101F7000ECEBFFE00C94921E8C01DC0113968D912A
:101F80009C911497892B39F08C9111969C918923FF
:101F90008F3F09F0DEC42896E0E10C94AE1E0E944B
:101FA000910AF82E682F89819A810E945A076981C7
:101FB0007A818F2D0E94720A7C01F8018281882328
:101FC00009F43AC1C70197578038910508F0FBC45E
:101FD000FFE0FE1508F488C08FEF93E00E94DB1E3F
:101FE000811182C066E9A62EB12CE11047C0FE0126
:101FF000339686E0DF011D928A95E9F75AE0452E77
:102000007501BFEFEB1AFB0AC5010E94DB1E898335
:102010001A82882309F468C0813009F078C065010C
:10202000E2E0CE0ED11CC7010E94DB1E8A8388230A
:1020300009F45AC09FEF980F933070F5F3E0AF0E9C
:10204000B11CC6010E94DB1E8B83882309F44CC09F
:102050001C82DE0111967D01F7012081222381F28D
:10206000213009F094C091818281913009F051C0F2
:10207000F2E0EF0EF11C0E94210C52C0A11424E0EA
:10208000B20691F1C5010E94DB1E811101C0EA94E4
:102090003FEFA31AB30AA9CF56018430D1F642E02C
:1020A000E42EF12C56012FEFA21AB20AC6010E94AB
:1020B000DB1EE1E0F0E0EC0FFD1FEE0DFF1D808365
:1020C000882391F08C3741F4E2E0F0E0EC0FFD1F43
:1020D000EE0DFF1D1082BDCF3FEFE31AF30A65013D
:1020E00087E0E816F104F1F68091CC01877009F4DD
:1020F00052CFD80112968C91882309F44CCF80914D
:102100001F0282FF48CF82E00E94A30744CF5701FD
:10211000A0CF923049F422E0E20EF11C0E94AC0BF9
:10212000EFEFEE1AFE0A98CF933031F432E0E30E6F
:10213000F11C0E94760BF4CF943021F08FEFE81A57
:10214000F80AEECF92E0E90EF11C30E020E0B70192
:102150006F5F7F4FD70111964C918053990B8A3056
:10216000910550F021503109D8F2EFE9FFE03197A5
:10217000F1F700C00000F6CF429EF001439EF00D43
:1021800011249C012E0F3F1F842F7B01E0CFE22FF3
:10219000F0E0EC50FE4F5490822F86958695869500
:1021A00090E0FC01EC51FE4F64902770712C022EE0
:1021B00002C0759467940A94E2F731E063227724B1
:1021C000FC01EC52FE4F8490912C022E02C095949B
:1021D00087940A94E2F7A1E08A229924FC01EC5347
:1021E000FE4FC490D12C02C0D594C7942A95E2F733
:1021F000B1E0CB22DD246114710419F081EE0E945C
:10220000AC0B8114910419F086EE0E94AC0B852D65
:102210000E94210C8114910419F086EE0E94760B25
:102220006114710419F081EE0E94760BC114D1047F
:1022300009F476CF8CE21FCFF701E851FC47E73075
:10224000F10508F0B1C3EA5CF04E0C94831E26E25F
:1022500041EE61EEC8010E943F0C46CF27E245EEF9
:1022600065EEF8CF26E241EE60EEF4CF27E245EED0
:1022700064EEF0CF26E241EE62EEECCF27E245EECF
:1022800066EEE8CF28E241E0EBCF80911E0281604C
:1022900080931E0295C080911F02886080931F0268
:1022A0008FC080911E028260F3CF80911E028460F5
:1022B000EFCF80911E028860EBCF80911F0281607A
:1022C000EDCF80911F028260E9CF80911E02806174
:1022D000DFCF80911E028062DBCF80911E0280647E
:1022E000D7CF0E94B30C80911E028068D1CF80911D
:1022F0001E028C60CDCF80911F028360CFCF809172
:102300001E028E7FC5CF80911F02877FC7CF80912D
:102310001E028D7FBDCF80911E028B7FB9CF809131
:102320001E02877FB5CF80911F028E7FB7CF80912D
:102330001F028D7FB3CF80911E028F7EA9CF809127
:102340001E028F7DA5CF80911E028F7BA1CF0E94A0
:10235000B30C80911E028F779BCF80911E02837FEA
:1023600097CF80911F028C7F99CF80911E0282FBB4
:10237000992790F921E0922790FB82F990FB83F94D
:1023800087CF80911F02982F909591708E7F892B17
:1023900090FB81F983CF90911E02892F8F7B96FF4E
:1023A000806476CF0E94B30C90911E02892F97FB18
:1023B00087F980586DCF61E08EE090E00E94E91EC1
:1023C00060911E0270911F0284E090E00E94071F3E
:1023D0000E94B30C89CE60E0EFCF90911E02892F4E
:1023E0008F7E94FF806154CF90911E02892F8E7F43
:1023F00090FF81604DCF90911F02892F877F93FFBF
:1024000088604CCFF7E7EF16FCE7FF0609F46AC0D7
:1024100028E7E2162CE7F20609F471C033E0E31670
:102420003CE7F30609F48CC008F06BC0E1149CE7AC
:10243000F90609F478C0A1E0EA16ACE7FA0609F457
:1024400085C0F8018281E080F180882309F48CC086
:10245000C7010E94910AD82E682FC7010E945A070F
:10246000B7018D2D0E94720A0E9498057C01882E6A
:10247000D8011296AC90129715969C9092943FE0DA
:1024800093228091CC018770F1F0CA2CAA20E1F050
:102490008F2D807F803451F080E28E0D883098F04F
:1024A000911004C08F2D807E803269F080911F02D0
:1024B00082FF09C082E00E94A3078091CC0187704F
:1024C000CC24C3948111C12CBF2CB2942FE0B22232
:1024D000BBE0BB1508F4B7C0EB2DF0E0E35CF04EB9
:1024E0000C94831E81E00E94BF0743E062E081E01C
:1024F0000E947607F9CD81E00E949607F6CF82E030
:10250000F2CFBBE5EB16BCE7FB0661F1ECE5EE169E
:10251000ECE7FE06E9F0FAE5EF16FCE7FF0609F046
:1025200090CF81E01CC00E94B30C2FEF34E38CE00D
:10253000215030408040E1F700C000000E941309A4
:102540006FEF7FEF90E080E00E94071F0E94A00FD6
:1025500080911F0282FB882780F991E089270E94E1
:102560009C0C6FCF80E0FBCFC7010E941407D82ED0
:1025700077CFEF2DEF70DE2E8F2D807F19F0D29464
:1025800090EFD922AA20B9F0DD2069F080E28E0D0B
:10259000883010F0811009C08091EE01D82AD092C5
:1025A000EE010E94100B8E2D4CC08091ED01D82AB7
:1025B000D092ED01F6CF8E2D0E94760BDD2009F42E
:1025C00042C080E28E0D883010F0811004C08D2D45
:1025D0000E94BC0606C0D0948091ED01D822D09212
:1025E000ED010E94100B2FC0FF2DFF70DF2E8F2DED
:1025F000807F803219F0D29480EFD822882089F031
:1026000021E0821609F46CC0AA2009F476C0992052
:1026100009F46CC0F801858180FFC5CF8F70858378
:1026200065C020911F0222FD34C0AA2061F1DD2087
:1026300039F08091EE01D82AD092EE010E94100B61
:1026400080E00E94AC0BAB2DA850BB0B149710F48C
:102650000E942404CC2009F49ECC8091CC0180FD02
:102660009ACCF80112828595859585950E94BF07C1
:10267000C8010E94B60F8091CC01859585958595FE
:102680000E94960788CC80E00E94760BDD20D9F26C
:102690009ECFAA2099F09091EF018D2D892B91105A
:1026A00003C00E946C0BCFCF31E09312FACF22FF10
:1026B000CACF891741F28093EF01C5CF911006C0B0
:1026C0000E94B6068D2D0E94650BBDCF81E0981645
:1026D00009F4B9CF8D2D0E94650B0E94B606B3CFC9
:1026E000AA2031F095E0991508F4ADCF8D2DD9CF02
:1026F000A4E0A91508F4A7CFE5CF992019F3F9E3D1
:102700008F1209C02FEF37EE83E021503040804018
:10271000E1F700C000008E2D0E94760B94CF8F2D24
:1027200086958695837061F0813009F08CCFC70162
:102730009370A11002C080E090E00E94DA0383CF82
:10274000C7019370A11002C080E090E00E94FF03D7
:102750007ACF6A2D8E2D0E94CE0775CF8F2D837074
:1027600091F5A11070CF4E2D429546954770440FBC
:10277000440F8E2D8F70042E01C0880F0A94EAF743
:102780002E2D2071E4FE07C02FE030E001C0220FA3
:102790004A95EAF720953F2D3695369533703230BD
:1027A00069F050F44091F801313029F0822B8423F4
:1027B0000E94CB0748CF842B822BFACF282B809105
:1027C000F8018227F5CF8695AA2011F08F2D817010
:1027D000882309F438CF4E2D429546954770440F13
:1027E000440F8E2D8F70042E01C0880F0A94EAF7D3
:1027F0002E2D2071E4FE07C02FE030E001C0220F33
:102800004A95EAF720953F2D36953695337032304C
:1028100069F050F44091F901313029F0822B842382
:102820000E94730710CF842B822BFACF282B809124
:10283000F9018227F5CF9F2D9F70F92EAA2029F04C
:10284000892F0E94BF078E2D2CCF8E2D0E94650BE5
:102850008F2D0E949607F7CE8E2DA2EF8A16B1F12A
:10286000A81570F0B0EF8B16D1F0E1EF8E1691F055
:10287000AA2009F45EC0911096CE8F2D8F712AC0C8
:10288000F3EF8F1651F124EF8212F2CF80911F02E5
:1028900082FD2FC08F2D8F71AA20D9F21BC0AA20D4
:1028A00081F034E0391508F4CECE2F2D2F7181E060
:1028B00090E001C0880F2A95EAF79091F9018927E5
:1028C000AFCF85E0891508F4BECEEFCF8F2D8F7185
:1028D000A110BFCF0E94BF07B6CE80E0AA2009F4A6
:1028E0009FCF9F2D9F7181E001C0880F9A95EAF7D5
:1028F00097CFAA2099F09F2D9F71F92E892F0E94C2
:10290000BF0780911F0282FF07C0A8E0FA9EC001A6
:10291000112483608093CC018F2DDCCF81E00E9455
:10292000A307B1E0B91508F08ECE82E00E94A3079C
:102930008ACE992059F0893309F0EDCEEFEFF7EE0A
:1029400023E0E150F0402040E1F7E3CE8F2D8F717E
:1029500080CF85E0F801DE01119601900D928A95F5
:10296000E1F7D80112962C9189819A81211117CB18
:102970000E941407F82E1BCBB6E1EB16BCE7FB0652
:1029800009F040CD8091EE018A7A91E009F490E05F
:1029900090938A0169E2811165E38AE691E00E94E1
:1029A000A5030E94100BA0CBE6E1EE16ECE7FE06B5
:1029B00051F580918A0169E2811165E38AE691E02F
:1029C0000E947B03EECFF701E851FC47E730F105A9
:1029D00008F439CC10925102C7019057839760F6E2
:1029E00084E090E00E94E31E90931F0280931E02F9
:1029F000F701E150F047E232F10508F046CCE75B21
:102A0000F04E0C94831EF7E7EF16FCE7FF0609F47F
:102A100072CD82E028E7E2162CE7F20609F46CCDCD
:102A200010CD1F93CF93DF9380919901807F09F0A0
:102A30004BC080919601882309F446C08091CB0158
:102A4000C0919A0140919401509195016091970134
:102A500070919801D42FD52316E0C817A9F190E002
:102A600061157105A9F1DF3F99F1189FF001199FD8
:102A7000F00D1124DF01A556BE4F11962C91119730
:102A8000251326C02C91241323C012962C91129743
:102A900021111EC013962D913C91261B370B283C0B
:102AA0003105B0F4809199018F7080618093990114
:102AB000E056FE4F80818F708061808384E991E0D1
:102AC0000E94B60F0E94E306DF91CF911F910895F7
:102AD00001968770C2CFA1E1B0E0E1E7F5E10C9487
:102AE000961E8C0185E0F801DE011D9601900D9285
:102AF0008A95E1F7F801E28084E9882E81E0982E3A
:102B000040919701509198014115510509F430C148
:102B10009091940120919501892F82238F3F09F490
:102B200027C1D080C180A380B480F0909601B50108
:102B3000641B750BFF2009F4E7C080919901382FC1
:102B4000307F683C710508F0ABC0311178C0FE2CB5
:102B50002C1114C09D1112C0E11010C08F70806143
:102B600080939901C4010E94B60F80919901F801E8
:102B700085838F2D6196ECE00C94B21EA114B104F4
:102B8000C9F18D2D8C218F3FA9F181E08E2580FF29
:102B900005C04E2D6C2D8D2D0E94C306A114B104CD
:102BA00059F18D2D8C218F3F39F181E08E25F82F41
:102BB000F170BF2E80FF39C04E2D6C2D8D2D0E94DF
:102BC000C306A82E811131C0DD86CE868D859E85F7
:102BD0000E94C00A292F22952F70243078F49F700C
:102BE0002230A8F09923B9F0F8019581907F99F4EB
:102BF000FA2CBFCF80E0CBCF80E0D9CF2A5F2F70F7
:102C0000223068F0C8010E94B60FAB2CF1CF992397
:102C100011F0882369F3805E883050F3F3CF803F52
:102C200038F3815F833070F7E3CFEE2009F4A1CF52
:102C300080919901816080939901F12C9ACF2C1198
:102C400005C09D1103C0EE2009F477C0C8010E94A1
:102C5000CD0A882309F1EE20F9F0809199018032A4
:102C600070F0209194013091950138872F83198657
:102C7000BB86AA868C87CE0107960E94B60F86E097
:102C8000F801A4E9B1E001900D928A95E1F70E9464
:102C90001115FF24F3946DCFC8010E94B60FF9CF30
:102CA00031110AC084E991E00E94B60F86E0F40178
:102CB00011928A95E9F7C1CF2C110EC09D110CC05D
:102CC000E1100AC08583C8010E94B60F86E0F401B6
:102CD00011928A95E9F74DCFC8010E94CD0A882349
:102CE000D9F2EE20C9F280919901803240F2209110
:102CF0009401309195013A8329831B82BD82AC8275
:102D00008E83CE010196B9CF683C7105F8F6FE2C92
:102D1000EE2011F22C111EC09D111CC08091990152
:102D200080FD0FC0982F907F61F08583903F31F038
:102D3000982F907F905F8F70892B8583C8010E94A8
:102D4000B60F86E0F801A4E9B1E001900D928A95F2
:102D5000E1F70FCFC8010E94CD0A811190CF809179
:102D60009901816080939901C8010E94B60F01CF3B
:102D7000EE2009F491CFC8010E94CD0AF82E8823D5
:102D800009F48ACF86E0F801A4E9B1E001900D9240
:102D90008A95E1F780919401909195010E94C00A73
:102DA0000E941115E6CEA7E1B0E0E9EDF6E10C9442
:102DB0009F1E4B8B5C8B6D8B7E8B8F8B611110926A
:102DC000ED011A8A198A85E0FE017396DE011D96CF
:102DD00001900D928A95E1F786E0FE013D96DE01B5
:102DE000179601900D928A95E1F7CE0107960E9401
:102DF0006B15882359F016E08091CB0190919A01D0
:102E0000891343C06796E3E00C94BB1E86E0FE0185
:102E10003796DE01119601900D928A95E1F78A8529
:102E20009B85892B41F38F81988589238F3F19F3E7
:102E300020919A0130E0C90101968770992740914D
:102E4000CB014817190671F40E94B30C10929A0135
:102E50001092CB0186E0E4E9F1E0DF011D928A9552
:102E6000E9F7C9CF96E0929FD001939FB00D11244E
:102E7000A556BE4FFE01319601900D929A95E1F74D
:102E800080939A010E94E306B6CF819FC00111246E
:102E900085569E4F0E946B15882309F4B3CF80910D
:102EA000CB0190E00196877099278093CB01A4CF46
:102EB000A5E0B0E0EEE5F7E10C949E1E0E946F03E2
:102EC0008C018091F0019091F10180179107A1F0A0
:102ED0008FEF89838A831B820E946F038160782F22
:102EE0009D838C8349815A816B818D810E94D31689
:102EF0001093F1010093F0012596E4E00C94BA1EC2
:102F0000A3E0B0E0E6E8F7E10C94991E19821A827A
:102F10001B8282E4C82E81E0D82E10E000E0EE246F
:102F2000E394F12CF60181916F018F3F09F446C0C3
:102F3000F894E82FE295EF70F0E021A18F70A701DF
:102F400002C0440F551F8A95E2F7CA01922F982BB1
:102F500091A392A18095892382A3789400C0E5E48F
:102F6000F1E0B12C31E021912F3F09F46CC0A22F88
:102F7000A295AF70B0E090968C9190E02F7002C057
:102F8000959587952A95E2F780FD5DC0832FB82A35
:102F9000330F51E0E934F50731F7F60131978081BD
:102FA0008F3F11F00E949C0480EA8A95F1F7E1E0DE
:102FB000F0E0EC0FFD1FE00FF11FB0820F5F1F4F1D
:102FC0000330110509F0AECF43E050E0BE016F5F62
:102FD0007F4F85EF91E00E941D1F892BB1F1898100
:102FE0009A81AB818093F5019093F601A093F7014C
:102FF00081E08093F4010E946F039093F30180932A
:10300000F2018091F2019091F3010E94540305971F
:1030100000F143E050E065EF71E083E092E00E9450
:103020001D1F892BD9F08091F5019091F601A09197
:10303000F7018093030290930402A093050281E0BC
:103040001092F40107C080E0A2CF8091F4018111B9
:10305000D8CF80E02396E9E00C94B51E80E0F0CF55
:103060001F920F920FB60F9211242F933F934F93FD
:103070005F936F937F938F939F93AF93BF93CF9300
:10308000DF93EF93FF93D091E900DF708091EC0024
:10309000C82FC17080FDC0E81092E9008091F00057
:1030A000877F8093F00078940E94E20C1092E900F0
:1030B0008091F00088608093F000CD2BCF70C0939A
:1030C000E900FF91EF91DF91CF91BF91AF919F9177
:1030D0008F917F916F915F914F913F912F910F90C1
:1030E0000FBE0F901F9018951F920F920FB60F9260
:1030F00011242F933F934F935F936F937F938F93FD
:103100009F93AF93BF93EF93FF938091E10082FF72
:1031100009C08091E20082FF05C08091E1008B7FB1
:103120008093E1008091DA0080FF24C08091D80074
:1031300080FF20C08091DA008E7F8093DA0080913A
:10314000D90080FF9DC080E189BD82E189BD09B4BD
:1031500000FEFDCF81E08093450280912002811125
:1031600009C00E94F7010E9498028091E2008460E9
:103170008093E2008091E10080FF17C08091E2001F
:1031800080FF13C08091E2008E7F8093E2008091E7
:10319000E20080618093E2008091D8008062809399
:1031A000D80019BC85E0809345028091E10084FF3E
:1031B0002BC08091E20084FF27C080E189BD82E1BD
:1031C00089BD89B5982F917080FFFBCF8091D80081
:1031D0008F7D8093D8008091E1008F7E8093E10005
:1031E0008091E2008F7E8093E2008091E200816016
:1031F0008093E20080914602882309F447C084E06E
:1032000080934502809145028091E10083FF27C0B1
:103210008091E20083FF23C08091E100877F80934B
:10322000E10082E080934502109246028091E10025
:103230008E7F8093E1008091E2008E7F8093E20098
:103240008091E20080618093E20042E060E080E0F3
:103250000E9466028091F00088608093F000FF91E8
:10326000EF91BF91AF919F918F917F916F915F91FE
:103270004F913F912F910F900FBE0F901F90189577
:1032800019BC109245021092200274CF8091E30085
:1032900087FD93E090934502B5CF78941F921FB6B7
:1032A0001F9211248F939F93AF93BF9380911A0223
:1032B00090911B02A0911C02B0911D020196A11DCC
:1032C000B11D80931A0290931B02A0931C02B0932D
:1032D0001D02BF91AF919F918F911F901FBE1F90B4
:1032E00018951F921FB61F9211248F939F93AF932F
:1032F000BF9380911902811113C080911A0290919D
:103300001B02A0911C02B0911D024196A11DB11D8E
:1033100080931A0290931B02A0931C02B0931D028B
:10332000BF91AF919F918F911F901FBE1F901895D5
:10333000CDB7DEB7E9970FB6F894DEBF0FBECDBFAD
:1033400085B7806885BF85B7806885BF84B7877F6C
:1033500084BF0FB6F894A89580916000886180932F
:103360006000109260000FBE80E890E00FB6F89405
:1033700080936100909361000FBE8AE994E090937E
:103380006901809368010E94F7010E949802809170
:10339000E20084608093E200789480914502882363
:1033A000A1F01091E9001F709091EC00892F8170BD
:1033B00090FD80E8182B1092E9008091E80083FDD1
:1033C0000E94E20C1F701093E90082E084BD93E03C
:1033D00095BD9AEF97BD80936E000E94F70A811108
:1033E00002C00E94000A81E0809300022198299A7D
:1033F00023982B9A8FE891E00197F1F700C0000025
:103400002091000241E052E0FA018E2F841B8217C6
:1034100008F4B6C081E90E949C0480E90E949C04E3
:1034200087EF0E949C0486EC0E949C0487E90E941E
:103430009C0486E60E949C0486EF0E949C0483E024
:10344000E3E0F2E0DF01282F1D922A95E9F7E5EF8E
:10345000F1E0DF011D928A95E9F790E080E00E949B
:10346000E31E873E9E4F21F40E94F70A811161C03E
:1034700067EE7EEF90E080E00E94071F60E082E050
:1034800090E00E94E91E60E083E090E00E94E91E67
:103490001092F80160E074E184E090E00E94071F60
:1034A00060E086E090E00E94E91E6FEF87E090E028
:1034B0000E94E91E40E050E0BA0188E090E00E94DE
:1034C000FB1E60E08DE090E00E94E91E40E050E0CD
:1034D000BA0188E190E00E94FB1E60E087E190E085
:1034E0000E94E91E40E050E0BA018CE190E00E94A9
:1034F000FB1E70E060E080E290E00E94071F40E069
:1035000050E0BA0188E190E00E94FB1E80E00E943A
:10351000E7090E94000A40E050E0BA018FE090E025
:103520000E94FB1E40E050E0BA0183E190E00E945F
:10353000FB1E82E090E00E94DB1E8093FA0184E093
:1035400090E00E94E31E90931F0280931E020E944F
:103550008017EFEFF6E721E0E150F0402040E1F77F
:1035600000C000000E9480178091030280FF13C0FA
:103570006FEF7FEF90E080E00E94071F0E94130929
:1035800083B1869581701B9904C090E0892B81934B
:103590003CCF92E0FBCF83E090E00E94DB1E0E94D4
:1035A000CB0780E091E0909316028093150238E1FA
:1035B000C32ED12C40E4E42EFF24F39452E0A52E38
:1035C000B12C8091450210E102E1853009F471C10E
:1035D0000E9480179091FB0180910302981373C1A0
:1035E0009091FC018091040298136DC19091FD01AE
:1035F00080910502981367C10E945817712C612CA5
:103600008DEF582E9CEF492E80910002781608F419
:1036100093C161100E94630386E0EDE0F2E0DE01F9
:10362000119601900D928A95E1F710920F02109277
:10363000100210921102109212028B819C81892B30
:1036400009F44AC080910B0290910C020E9454032D
:103650009C0190910602992309F43CC32531310560
:10366000D8F19F3F19F09F5F909306021B811123B1
:1036700059F00E947A049FEF11160CF491E0899F93
:10368000802D112480930F021C81112359F00E9478
:103690007A049FEF11160CF491E0899F802D11247C
:1036A0008093100230910F023323B1F02091100269
:1036B000222391F045EB3403C0011124992309F42E
:1036C000BEC190930F0245EB2403900111243323D4
:1036D00009F4B8C1309310028D819E81892B09F4C1
:1036E0004AC08091090290910A020E9454039C01F1
:1036F00090910702992309F4E8C221353105D8F1E8
:103700009F3F19F09F5F909307021D81112359F08D
:103710000E9458049FEF11160CF491E0899F802DB0
:103720001124809311021E81112359F00E94580424
:103730009FEF11160CF491E0899F802D1124809346
:103740001202309111023323B1F020911202222390
:1037500091F045EB3403C0011124992309F475C19C
:103760009093110245EB240390011124332309F4B3
:103770006FC13093120246E050E0BE016F5F7F4F91
:103780008DE092E00E941D1F892B61F480910F0251
:1037900090911002892B90911102892B9091120225
:1037A000892B11F00E94310486E0FE013196ADE0D4
:1037B000B2E001900D928A95E1F70E942404909165
:1037C0000202891721F0809302020E946303809114
:1037D0004502843009F0F5CE83E08093E9008091C2
:1037E000E80082FFEECE8091E80090E085FF06C001
:1037F0000E941602882309F42EC191E08091E8000E
:103800008B778093E800992309F4DBCEE981E150BE
:10381000E53108F047C1F0E0E559F04E0C94831E05
:1038200080914502843009F1109219020FB6F89484
:10383000A895C09260000FBEE092600083B7817FC0
:10384000846083BF83B7816083BF7894889583B792
:103850008E7F83BF0FB6F894A89580916000886131
:1038600080936000109260000FBE80914402882314
:1038700001F10E9480178091040290910302892B2C
:1038800090910502892BA9F019BD09BD09B400FE6C
:10389000FDCF8091D8008F7D8093D8008091E0008B
:1038A00082608093E0008091E00081FDFCCF0E9467
:1038B000B30C80914502853009F4B2CF0E94B30C5D
:1038C0000E94240485CE23E0822E22E0922E0BEF6C
:1038D00011E0712CD4016D904D01F80131908F01F0
:1038E000361419F13624512C44244394832D842119
:1038F000A1F05DAA7EAA91E0862D842109F490E0D2
:103900009FAB0E946F038160782F99AF88AF4DA95C
:103910005EA96FA989AD0E94D3165394440CF4E0BC
:103920005F12E4CFF80131976082739423E0721242
:10393000D1CF0E94630362CE072D10E0E3B1E6957C
:10394000E1701B997AC080E08E2BD801AF5FBD4F2C
:10395000EC919E2F9370891709F46DC0EE0FEE0F56
:10396000E82BEC93EF70F0E0E75BFE4FC80181506D
:103970009E4F4C018081D4019C91890F8C9320E053
:1039800082302CF1F801E250FE4F80818F5F8083FE
:103990000E946F037BA64CA6FDA68160782F9FA78F
:1039A0008EA7472D5CEF61E08FA50E94D3160E9481
:1039B0006F0378AA49AA1AAA8160782F9CAB8BABB7
:1039C000472D5CEF60E08CA90E94D31621E0F40142
:1039D00080818F3F2CF5F801E250FE4F80818150AD
:1039E00080830E946F0379A25AA2FBA28160782F84
:1039F0009DA38CA3472D5DEF61E08DA10E94D3169E
:103A00000E946F037EA25FA218A68160782F9AA7FA
:103A100089A7472D5DEF60E08AA50E94D31621E0BB
:103A2000D4018C91082E000C990BB5010E946F1ED9
:103A3000F4018083622A7394E7CD82E085CFF0920F
:103A40000F0241CEF092100247CEF09211028ACEC0
:103A5000F092120290CE00E210E0CE0101964C01ED
:103A60008091E80085FD0AC08091E8008B77809303
:103A7000E8000E941602882399F3BFCE8091F100DE
:103A8000D4018D934D010150110951F7B6CE1A8220
:103A90008CE08B831BC08A81823009F40DC128F42D
:103AA000813061F08FEF898311C08330C1F08430A1
:103AB000C9F71B821C821D821E8208C00E946303FC
:103AC0000E94891E6B837C838D839E8340E250E03D
:103AD000BE016F5F7F4F82E00E94A60872CD2B81EE
:103AE000822F90E0FE013496245E8330910570F7BA
:103AF000DC01AD5FBD4F3C91319301962813F5CFAA
:103B0000E5CF8A81823019F0853001F3CBCF6B810C
:103B10007C818D819E810E94891E85E290E00E94B9
:103B2000E91ED4CF4C816B818A810E94430A982779
:103B3000892798279E838D83C9CF2D813E81322787
:103B4000232732274C816B818A810E947209BECF64
:103B50000E949809BBCF80E18A83B8CF83E08A8333
:103B60008AE697CF0A811B81102701271027FE01C3
:103B700031963F018C80CF01880D911D4C01C80109
:103B80008A569F4F6814790409F4A0CF0A36A3E03F
:103B90001A0750F40E94DB1EF30184830F5F1F4F4E
:103BA000BFEF6B1A7B0AEBCFD30114961C92F6CFB2
:103BB0000A811B81102701271027FE0131963F0142
:103BC0008C80800E912E911CC8018A569F4F8016C2
:103BD000910609F47BCF0A36F3E01F0728F4D301DE
:103BE00014966C910E94E91EBFEF6B1A7B0A0F5F5F
:103BF0001F4FEACF0E94370969CF84E0ADCF0A8119
:103C00001B81102701271027FE0131963F018C8070
:103C1000CF01880D911D4C01C8018696861497042A
:103C200009F454CF0036110558F40E94DB1ED3016D
:103C300014968C930F5F1F4FFFEF6F1A7F0AECCF24
:103C4000F3011482F7CF0A811B8110270127102767
:103C5000CE0101963C018C80800E912E911CC801F2
:103C600086960815190509F431CF0036110528F498
:103C7000D30114966C910E94E91EBFEF6B1A7B0A68
:103C80000F5F1F4FECCF41E08C81811101C040E0FC
:103C90006B818A810E94100A4ACF2D813E81322792
:103CA0002327322741E08C81811101C040E06B81E4
:103CB0008A810E9447090ACF85E290E00E94DB1EBC
:103CC0001B821C821D828E8301CF2B30310508F0B0
:103CD00019CD51CD2B30310508F0C5CCFDCC97FB6B
:103CE000072E16F4009407D077FD09D00E94C71E56
:103CF00007FC05D03EF4909581959F4F08957095EF
:103D000061957F4F0895EE0FFF1F0590F491E02D10
:103D100009946927962769277827872778270895A0
:103D20002F923F924F925F926F927F928F929F92CB
:103D3000AF92BF92CF92DF92EF92FF920F931F93B9
:103D4000CF93DF93CDB7DEB7CA1BDB0B0FB6F8946A
:103D5000DEBF0FBECDBF09942A88398848885F84AA
:103D60006E847D848C849B84AA84B984C884DF801B
:103D7000EE80FD800C811B81AA81B981CE0FD11DFF
:103D80000FB6F894DEBF0FBECDBFED010895AA1B9C
:103D9000BB1B51E107C0AA1FBB1FA617B70710F036
:103DA000A61BB70B881F991F5A95A9F78095909568
:103DB000BC01CD010895F999FECF92BD81BDF89A5D
:103DC000992780B50895A8E1B0E042E050E00C9456
:103DD0000F1F262FF999FECF92BD81BDF89A01974A
:103DE00000B4021639F01FBA20BD0FB6F894FA9A43
:103DF000F99A0FBE08950396272F0E94EA1E0E948B
:103E0000E91E252F0E94EA1E242F0C94EA1E01961B
:103E1000272F0E94EA1E0C94E91EDC01CB01FC0155
:103E2000F999FECF06C0F2BDE1BDF89A319600B413
:103E30000D9241505040B8F70895FB01DC0104C0D9
:103E40008D910190801921F441505040C8F7881B92
:103E5000990B0895F894FFCFC30DEB0D8E0FEB0D6A
:103E60008E0F1E0E3F0E8E0F3D0F4A0F3211361170
:103E700027112E113A113E114211B912B912F41242
:103E8000F4128F13A91323132313AE131B142C1432
:103E90002C147F11F4118711511155118B115911E7
:103EA0008F119B116511ED1169119F116D11A311F6
:103EB000CB117111A711D2117711AD11B5115D118F
:103EC0009311611197117B11B111C111DB11EB112C
:103ED0004B118311FB11471D4B1D811D921D9D1D13
:103EE000A81D521D521D521D521D521DAB1DAE1D4F
:103EF000B21DD81DFA1DFD1DFF1D231E431E4D1EA4
:103F00005103EF08E808E10801818283E200E9003B
:103F1000EA00B500B600B700CD008301CC008A01ED
:103F20009201940121022302240225022602270283
:103F30002A02B300B4006F0070009F01CB019F0202
:103F4000A0029190F7C69766F600FF0100010000FD
:103F5000FFFF0000010001FF004022B68401620162
:083F6000AC00F6020F032F0371
:00000001FF
